{
  "contractName": "Anonymizer",
  "abi": [
    {
      "inputs": [],
      "payable": false,
      "stateMutability": "nonpayable",
      "type": "constructor"
    },
    {
      "constant": true,
      "inputs": [],
      "name": "owner",
      "outputs": [
        {
          "internalType": "address",
          "name": "",
          "type": "address"
        }
      ],
      "payable": false,
      "stateMutability": "view",
      "type": "function"
    },
    {
      "constant": true,
      "inputs": [],
      "name": "getBalance",
      "outputs": [
        {
          "internalType": "uint256",
          "name": "",
          "type": "uint256"
        }
      ],
      "payable": false,
      "stateMutability": "view",
      "type": "function"
    },
    {
      "constant": false,
      "inputs": [
        {
          "internalType": "address",
          "name": "_to",
          "type": "address"
        },
        {
          "internalType": "uint256",
          "name": "_amountToSend",
          "type": "uint256"
        },
        {
          "internalType": "uint256",
          "name": "_amountToDeposit",
          "type": "uint256"
        }
      ],
      "name": "sendEther",
      "outputs": [
        {
          "internalType": "uint256",
          "name": "",
          "type": "uint256"
        }
      ],
      "payable": true,
      "stateMutability": "payable",
      "type": "function"
    }
  ],
  "bytecode": "0x608060405234801561001057600080fd5b50336000806101000a81548173ffffffffffffffffffffffffffffffffffffffff021916908373ffffffffffffffffffffffffffffffffffffffff16021790555061018f806100606000396000f3fe6080604052600436106100345760003560e01c806312065fe0146100395780638da5cb5b14610064578063dfa24e8e146100bb575b600080fd5b34801561004557600080fd5b5061004e610127565b6040518082815260200191505060405180910390f35b34801561007057600080fd5b5061007961012c565b604051808273ffffffffffffffffffffffffffffffffffffffff1673ffffffffffffffffffffffffffffffffffffffff16815260200191505060405180910390f35b610111600480360360608110156100d157600080fd5b81019080803573ffffffffffffffffffffffffffffffffffffffff1690602001909291908035906020019092919080359060200190929190505050610151565b6040518082815260200191505060405180910390f35b600090565b6000809054906101000a900473ffffffffffffffffffffffffffffffffffffffff1681565b6000939250505056fea265627a7a72315820c1a2746e53bb95b4fe962e3cd0b69eb648ee969771c83999947c3be0a7caedb864736f6c63430005100032",
  "source": "// SPDX-License-Identifier: MIT\n\npragma solidity >=0.5.0 <0.9.0;\n\ncontract Anonymizer {\n    /**\n     * @notice Contract owner:\n     * can upgrade contracts\n     * can pause/freeze contracts in case of emergency\n     * can't access users funds\n     **/\n    address public owner;\n\n    /**\n     * @dev users balances:\n     * The key is the user's address(hashed to increase privacy)\n     * The value is the user's balance\n     **/\n    mapping(address => uint256) private balances;\n\n    /**\n     * @dev initialize contract owner\n     */\n    constructor() public {\n        owner = msg.sender;\n    }\n\n    /**\n     * @notice Returns the ether balance available inside the contract\n     * @return user's contract balance\n     **/\n    function getBalance() public view returns (uint256) {}\n\n    /**\n     * @notice Send ether to an address(including yourself)\n     * @notice By sending funds to your own address, the funds are kept within the contract and available for later use\n     * @notice By keeping funds into the contract, it increases the transaction privacy but the risk as well\n     * @notice DO NOT KEEP LARGE AMOUNTS INTO THE CONTRACT\n     * @dev send ether to provided address and/or increase user's contract balance\n     * @param _to the destination address to which the ether is sent\n     * @param _amountToSend the amount of ether sent to the provided address\n     * @param _amountToDeposit the amount of ether to deposit into the contract. Can be zero.\n     * @return user's contract balance\n     **/\n    function sendEther(\n        address _to,\n        uint256 _amountToSend,\n        uint256 _amountToDeposit\n    ) external payable returns (uint256) {}\n\n    /**\n     * @dev increase the user's contract balance\n     * @param _amount the amount to be added to the user's balance\n     * @return user's contract balance\n     **/\n    function depositToInternalAccount(uint256 _amount)\n        private\n        returns (uint256)\n    {}\n\n    /**\n     * @dev decrease user's contract balance\n     * @param _amount the amount to be substracted from the user's balance\n     * @return user's contract balance\n     **/\n    function substractFromInternalAccount(uint256 _amount)\n        private\n        returns (uint256)\n    {}\n\n    /**\n     * @dev send ether to an external account\n     * @param _to the external account address\n     * @param _amount the amount sent to external address\n     * @return transaction success/failure\n     **/\n    function sendToExternalAccount(address _to, uint256 _amount)\n        private\n        returns (bool)\n    {}\n}\n",
  "sourcePath": "/Users/gaborsamoila/Documents/IT/github-projects/blockchain-developer-bootcamp-final-project/contracts/Anonymizer.sol",
  "compiler": {
    "name": "solc",
    "version": "0.5.16+commit.9c3226ce.Emscripten.clang"
  },
  "schemaVersion": "3.4.3",
  "updatedAt": "2021-11-01T11:36:14.153Z",
  "networkType": "ethereum",
  "devdoc": {
    "methods": {
      "constructor": {
        "details": "initialize contract owner"
      },
      "getBalance()": {
        "return": "user's contract balance*"
      },
      "sendEther(address,uint256,uint256)": {
        "details": "send ether to provided address and/or increase user's contract balance",
        "params": {
          "_amountToDeposit": "the amount of ether to deposit into the contract. Can be zero.",
          "_amountToSend": "the amount of ether sent to the provided address",
          "_to": "the destination address to which the ether is sent"
        },
        "return": "user's contract balance*"
      }
    }
  },
  "userdoc": {
    "methods": {
      "getBalance()": {
        "notice": "Returns the ether balance available inside the contract"
      },
      "sendEther(address,uint256,uint256)": {
        "notice": "Send ether to an address(including yourself)By sending funds to your own address, the funds are kept within the contract and available for later useBy keeping funds into the contract, it increases the transaction privacy but the risk as wellDO NOT KEEP LARGE AMOUNTS INTO THE CONTRACT"
      }
    }
  }
}