{
  "contractName": "Anonymizer",
  "abi": [
    {
      "inputs": [],
      "payable": false,
      "stateMutability": "nonpayable",
      "type": "constructor"
    },
    {
      "anonymous": false,
      "inputs": [
        {
          "indexed": true,
          "internalType": "uint256",
          "name": "balance",
          "type": "uint256"
        }
      ],
      "name": "EthDeposit",
      "type": "event"
    },
    {
      "anonymous": false,
      "inputs": [
        {
          "indexed": true,
          "internalType": "uint256",
          "name": "balance",
          "type": "uint256"
        }
      ],
      "name": "EthWithdraw",
      "type": "event"
    },
    {
      "constant": true,
      "inputs": [],
      "name": "owner",
      "outputs": [
        {
          "internalType": "address",
          "name": "",
          "type": "address"
        }
      ],
      "payable": false,
      "stateMutability": "view",
      "type": "function"
    },
    {
      "constant": true,
      "inputs": [
        {
          "internalType": "address",
          "name": "_addr",
          "type": "address"
        }
      ],
      "name": "getBalance",
      "outputs": [
        {
          "internalType": "uint256",
          "name": "",
          "type": "uint256"
        }
      ],
      "payable": false,
      "stateMutability": "view",
      "type": "function"
    },
    {
      "constant": false,
      "inputs": [],
      "name": "depositEth",
      "outputs": [
        {
          "internalType": "uint256",
          "name": "",
          "type": "uint256"
        }
      ],
      "payable": true,
      "stateMutability": "payable",
      "type": "function"
    },
    {
      "constant": false,
      "inputs": [
        {
          "internalType": "address payable",
          "name": "_to",
          "type": "address"
        },
        {
          "internalType": "uint256",
          "name": "_amount",
          "type": "uint256"
        }
      ],
      "name": "withdrawEth",
      "outputs": [
        {
          "internalType": "uint256",
          "name": "",
          "type": "uint256"
        }
      ],
      "payable": false,
      "stateMutability": "nonpayable",
      "type": "function"
    },
    {
      "constant": false,
      "inputs": [
        {
          "internalType": "address",
          "name": "_to",
          "type": "address"
        },
        {
          "internalType": "uint256",
          "name": "_amountToSend",
          "type": "uint256"
        },
        {
          "internalType": "uint256",
          "name": "_amountToDeposit",
          "type": "uint256"
        }
      ],
      "name": "sendEther",
      "outputs": [
        {
          "internalType": "uint256",
          "name": "",
          "type": "uint256"
        }
      ],
      "payable": true,
      "stateMutability": "payable",
      "type": "function"
    }
  ],
  "bytecode": "0x608060405234801561001057600080fd5b50336000806101000a81548173ffffffffffffffffffffffffffffffffffffffff021916908373ffffffffffffffffffffffffffffffffffffffff1602179055506105af806100606000396000f3fe60806040526004361061004a5760003560e01c80631b9a91a41461004f578063439370b1146100be5780638da5cb5b146100dc578063dfa24e8e14610133578063f8b2cb4f1461019f575b600080fd5b34801561005b57600080fd5b506100a86004803603604081101561007257600080fd5b81019080803573ffffffffffffffffffffffffffffffffffffffff16906020019092919080359060200190929190505050610204565b6040518082815260200191505060405180910390f35b6100c6610403565b6040518082815260200191505060405180910390f35b3480156100e857600080fd5b506100f1610503565b604051808273ffffffffffffffffffffffffffffffffffffffff1673ffffffffffffffffffffffffffffffffffffffff16815260200191505060405180910390f35b6101896004803603606081101561014957600080fd5b81019080803573ffffffffffffffffffffffffffffffffffffffff1690602001909291908035906020019092919080359060200190929190505050610528565b6040518082815260200191505060405180910390f35b3480156101ab57600080fd5b506101ee600480360360208110156101c257600080fd5b81019080803573ffffffffffffffffffffffffffffffffffffffff169060200190929190505050610531565b6040518082815260200191505060405180910390f35b600081600160003373ffffffffffffffffffffffffffffffffffffffff1673ffffffffffffffffffffffffffffffffffffffff1681526020019081526020016000205410156102bb576040517f08c379a00000000000000000000000000000000000000000000000000000000081526004018080602001828103825260138152602001807f496e73756666696369656e742066756e64732e0000000000000000000000000081525060200191505060405180910390fd5b81600160003373ffffffffffffffffffffffffffffffffffffffff1673ffffffffffffffffffffffffffffffffffffffff168152602001908152602001600020600082825403925050819055508273ffffffffffffffffffffffffffffffffffffffff166108fc839081150290604051600060405180830381858888f1935050505015801561034e573d6000803e3d6000fd5b50600160003373ffffffffffffffffffffffffffffffffffffffff1673ffffffffffffffffffffffffffffffffffffffff168152602001908152602001600020547f5dfcd77c1d2e4b9f1f7875aef13b161e0756d81673a6c0707d78d8beef3dcf7b60405160405180910390a2600160003373ffffffffffffffffffffffffffffffffffffffff1673ffffffffffffffffffffffffffffffffffffffff16815260200190815260200160002054905092915050565b600034600160003373ffffffffffffffffffffffffffffffffffffffff1673ffffffffffffffffffffffffffffffffffffffff16815260200190815260200160002060008282540192505081905550600160003373ffffffffffffffffffffffffffffffffffffffff1673ffffffffffffffffffffffffffffffffffffffff168152602001908152602001600020547f42209bf5ab128dd09fe8335ccb37e22361cc9a9ab81f1968216559bd85a595cc60405160405180910390a2600160003373ffffffffffffffffffffffffffffffffffffffff1673ffffffffffffffffffffffffffffffffffffffff16815260200190815260200160002054905090565b6000809054906101000a900473ffffffffffffffffffffffffffffffffffffffff1681565b60009392505050565b6000600160008373ffffffffffffffffffffffffffffffffffffffff1673ffffffffffffffffffffffffffffffffffffffff16815260200190815260200160002054905091905056fea265627a7a7231582052680f5f8201ef5f09d2942f6aaa0b16aabf656e70d7e0be9e4685884500d0d964736f6c63430005100032",
  "source": "// SPDX-License-Identifier: MIT\n\npragma solidity >=0.5.0 <0.9.0;\n\ncontract Anonymizer {\n    /**\n     * @notice Contract owner:\n     * can upgrade contracts\n     * can pause/freeze contracts in case of emergency\n     * can't access users funds\n     **/\n    address public owner;\n\n    /**\n     * @dev users balances:\n     * The key is the user's address(hashed to increase privacy)\n     * The value is the user's balance\n     **/\n    mapping(address => uint256) private balances;\n\n    /**\n     * @dev events:\n     * @param balance the updated eth balance for current user\n     **/\n    event EthDeposit(uint256 indexed balance);\n    event EthWithdraw(uint256 indexed balance);\n\n    /**\n     * @dev initialize contract owner\n     */\n    constructor() public {\n        owner = msg.sender;\n    }\n\n    /**\n     * @notice Returns the ether balance available inside the contract\n     * @return user's contract balance\n     **/\n    function getBalance(address _addr) public view returns (uint256) {\n        return balances[_addr];\n    }\n\n    /**\n     * @dev increase the user's contract balance\n     * @return user's updated balance\n     **/\n    function depositEth() public payable returns (uint256) {\n        balances[msg.sender] += msg.value;\n        emit EthDeposit(balances[msg.sender]);\n        return balances[msg.sender];\n    }\n\n    /**\n     * @dev decrease the user's contract balance\n     * @return user's updated balance\n     **/\n    function withdrawEth(address payable _to, uint256 _amount)\n        public\n        returns (uint256)\n    {\n        require(balances[msg.sender] >= _amount, \"Insufficient funds.\");\n\n        // the recommanded way to send ether after December 2019(but errors out, probably due to solidity version)\n        // (bool sent, ) = _to.call{value: _amount}(\"\");\n        // require(sent, \"Failed to send Ether\");\n\n        balances[msg.sender] -= _amount;\n        _to.transfer(_amount);\n        // require(sent, \"Failed to send Ether\");\n        emit EthWithdraw(balances[msg.sender]);\n        return balances[msg.sender];\n    }\n\n    /**\n     * @notice Send ether to an address(including yourself)\n     * @notice By sending funds to your own address, the funds are kept within the contract and available for later use\n     * @notice By keeping funds into the contract, it increases the transaction privacy but the risk as well\n     * @notice DO NOT KEEP LARGE AMOUNTS INTO THE CONTRACT\n     * @dev send ether to provided address and/or increase user's contract balance\n     * @param _to the destination address to which the ether is sent\n     * @param _amountToSend the amount of ether sent to the provided address\n     * @param _amountToDeposit the amount of ether to deposit into the contract. Can be zero.\n     * @return user's contract balance\n     **/\n    function sendEther(\n        address _to,\n        uint256 _amountToSend,\n        uint256 _amountToDeposit\n    ) external payable returns (uint256) {}\n\n    /**\n     * @dev increase the user's contract balance\n     * @param _amount the amount to be added to the user's balance\n     * @return user's contract balance\n     **/\n    function depositToInternalAccount(uint256 _amount)\n        private\n        returns (uint256)\n    {}\n\n    /**\n     * @dev decrease user's contract balance\n     * @param _amount the amount to be substracted from the user's balance\n     * @return user's contract balance\n     **/\n    function substractFromInternalAccount(uint256 _amount)\n        private\n        returns (uint256)\n    {}\n\n    /**\n     * @dev send ether to an external account\n     * @param _to the external account address\n     * @param _amount the amount sent to external address\n     * @return transaction success/failure\n     **/\n    function sendToExternalAccount(address _to, uint256 _amount)\n        private\n        returns (bool)\n    {}\n}\n",
  "sourcePath": "/Users/gaborsamoila/Documents/IT/github-projects/blockchain-developer-bootcamp-final-project/contracts/Anonymizer.sol",
  "compiler": {
    "name": "solc",
    "version": "0.5.16+commit.9c3226ce.Emscripten.clang"
  },
  "schemaVersion": "3.4.3",
  "updatedAt": "2021-11-03T12:16:41.717Z",
  "networkType": "ethereum",
  "devdoc": {
    "methods": {
      "constructor": {
        "details": "initialize contract owner"
      },
      "depositEth()": {
        "details": "increase the user's contract balance",
        "return": "user's updated balance*"
      },
      "getBalance(address)": {
        "return": "user's contract balance*"
      },
      "sendEther(address,uint256,uint256)": {
        "details": "send ether to provided address and/or increase user's contract balance",
        "params": {
          "_amountToDeposit": "the amount of ether to deposit into the contract. Can be zero.",
          "_amountToSend": "the amount of ether sent to the provided address",
          "_to": "the destination address to which the ether is sent"
        },
        "return": "user's contract balance*"
      },
      "withdrawEth(address,uint256)": {
        "details": "decrease the user's contract balance",
        "return": "user's updated balance*"
      }
    }
  },
  "userdoc": {
    "methods": {
      "getBalance(address)": {
        "notice": "Returns the ether balance available inside the contract"
      },
      "sendEther(address,uint256,uint256)": {
        "notice": "Send ether to an address(including yourself)By sending funds to your own address, the funds are kept within the contract and available for later useBy keeping funds into the contract, it increases the transaction privacy but the risk as wellDO NOT KEEP LARGE AMOUNTS INTO THE CONTRACT"
      }
    }
  }
}