{
  "contractName": "Anonymizer",
  "abi": [
    {
      "inputs": [],
      "stateMutability": "nonpayable",
      "type": "constructor"
    },
    {
      "anonymous": false,
      "inputs": [
        {
          "indexed": true,
          "internalType": "uint256",
          "name": "balance",
          "type": "uint256"
        }
      ],
      "name": "DepositerEthBalance",
      "type": "event"
    },
    {
      "anonymous": false,
      "inputs": [
        {
          "indexed": true,
          "internalType": "uint256",
          "name": "balance",
          "type": "uint256"
        }
      ],
      "name": "EthDeposit",
      "type": "event"
    },
    {
      "anonymous": false,
      "inputs": [
        {
          "indexed": true,
          "internalType": "uint256",
          "name": "balance",
          "type": "uint256"
        }
      ],
      "name": "EthWithdraw",
      "type": "event"
    },
    {
      "inputs": [],
      "name": "owner",
      "outputs": [
        {
          "internalType": "address",
          "name": "",
          "type": "address"
        }
      ],
      "stateMutability": "view",
      "type": "function",
      "constant": true
    },
    {
      "inputs": [
        {
          "internalType": "address",
          "name": "_addr",
          "type": "address"
        }
      ],
      "name": "getBalance",
      "outputs": [
        {
          "internalType": "uint256",
          "name": "",
          "type": "uint256"
        }
      ],
      "stateMutability": "view",
      "type": "function",
      "constant": true
    },
    {
      "inputs": [
        {
          "internalType": "address",
          "name": "_to",
          "type": "address"
        },
        {
          "internalType": "uint256",
          "name": "_toMyselfAmount",
          "type": "uint256"
        }
      ],
      "name": "depositEth",
      "outputs": [],
      "stateMutability": "payable",
      "type": "function",
      "payable": true
    },
    {
      "inputs": [
        {
          "internalType": "address",
          "name": "_to",
          "type": "address"
        }
      ],
      "name": "depositEth",
      "outputs": [],
      "stateMutability": "payable",
      "type": "function",
      "payable": true
    },
    {
      "inputs": [
        {
          "internalType": "address payable",
          "name": "_to",
          "type": "address"
        },
        {
          "internalType": "uint256",
          "name": "_amount",
          "type": "uint256"
        }
      ],
      "name": "withdrawEth",
      "outputs": [],
      "stateMutability": "nonpayable",
      "type": "function"
    }
  ],
  "bytecode": "0x608060405234801561001057600080fd5b50336000806101000a81548173ffffffffffffffffffffffffffffffffffffffff021916908373ffffffffffffffffffffffffffffffffffffffff160217905550610a1b806100606000396000f3fe60806040526004361061004a5760003560e01c80631b9a91a41461004f57806339ed5123146100785780638da5cb5b14610094578063ad9d4ba3146100bf578063f8b2cb4f146100db575b600080fd5b34801561005b57600080fd5b5061007660048036038101906100719190610616565b610118565b005b610092600480360381019061008d9190610652565b61030d565b005b3480156100a057600080fd5b506100a961047c565b6040516100b691906107e7565b60405180910390f35b6100d960048036038101906100d491906105ed565b6104a0565b005b3480156100e757600080fd5b5061010260048036038101906100fd91906105ed565b610565565b60405161010f9190610862565b60405180910390f35b80600160003373ffffffffffffffffffffffffffffffffffffffff1673ffffffffffffffffffffffffffffffffffffffff16815260200190815260200160002054101561019a576040517f08c379a000000000000000000000000000000000000000000000000000000000815260040161019190610842565b60405180910390fd5b80600160003373ffffffffffffffffffffffffffffffffffffffff1673ffffffffffffffffffffffffffffffffffffffff16815260200190815260200160002060008282546101e991906108ef565b9250508190555060008273ffffffffffffffffffffffffffffffffffffffff1682604051610216906107d2565b60006040518083038185875af1925050503d8060008114610253576040519150601f19603f3d011682016040523d82523d6000602084013e610258565b606091505b505090508061029c576040517f08c379a000000000000000000000000000000000000000000000000000000000815260040161029390610802565b60405180910390fd5b600160003373ffffffffffffffffffffffffffffffffffffffff1673ffffffffffffffffffffffffffffffffffffffff168152602001908152602001600020547f5dfcd77c1d2e4b9f1f7875aef13b161e0756d81673a6c0707d78d8beef3dcf7b60405160405180910390a2505050565b80341161034f576040517f08c379a000000000000000000000000000000000000000000000000000000000815260040161034690610822565b60405180910390fd5b6000813461035d91906108ef565b905080600160008573ffffffffffffffffffffffffffffffffffffffff1673ffffffffffffffffffffffffffffffffffffffff16815260200190815260200160002060008282546103ae9190610899565b9250508190555081600160003373ffffffffffffffffffffffffffffffffffffffff1673ffffffffffffffffffffffffffffffffffffffff16815260200190815260200160002060008282546104049190610899565b92505081905550600160003373ffffffffffffffffffffffffffffffffffffffff1673ffffffffffffffffffffffffffffffffffffffff168152602001908152602001600020547fcc9129df0878bddaed2b37ad5a0b92883c12e5f15e3208c9c30cdf43e40688e660405160405180910390a2505050565b60008054906101000a900473ffffffffffffffffffffffffffffffffffffffff1681565b34600160008373ffffffffffffffffffffffffffffffffffffffff1673ffffffffffffffffffffffffffffffffffffffff16815260200190815260200160002060008282546104ef9190610899565b92505081905550600160003373ffffffffffffffffffffffffffffffffffffffff1673ffffffffffffffffffffffffffffffffffffffff168152602001908152602001600020547fcc9129df0878bddaed2b37ad5a0b92883c12e5f15e3208c9c30cdf43e40688e660405160405180910390a250565b6000600160008373ffffffffffffffffffffffffffffffffffffffff1673ffffffffffffffffffffffffffffffffffffffff168152602001908152602001600020549050919050565b6000813590506105bd816109a0565b92915050565b6000813590506105d2816109b7565b92915050565b6000813590506105e7816109ce565b92915050565b6000602082840312156105ff57600080fd5b600061060d848285016105ae565b91505092915050565b6000806040838503121561062957600080fd5b6000610637858286016105c3565b9250506020610648858286016105d8565b9150509250929050565b6000806040838503121561066557600080fd5b6000610673858286016105ae565b9250506020610684858286016105d8565b9150509250929050565b61069781610923565b82525050565b60006106aa601483610888565b91507f4661696c656420746f2073656e642045746865720000000000000000000000006000830152602082019050919050565b60006106ea604a83610888565b91507f54686520746f74616c20616d6f756e74206d757374206265206772656174686560008301527f72207468616e2074686520616d6f756e74206465706f7369746564206261636b60208301527f20746f2073656e646572000000000000000000000000000000000000000000006040830152606082019050919050565b600061077660008361087d565b9150600082019050919050565b6000610790601383610888565b91507f496e73756666696369656e742066756e64732e000000000000000000000000006000830152602082019050919050565b6107cc81610967565b82525050565b60006107dd82610769565b9150819050919050565b60006020820190506107fc600083018461068e565b92915050565b6000602082019050818103600083015261081b8161069d565b9050919050565b6000602082019050818103600083015261083b816106dd565b9050919050565b6000602082019050818103600083015261085b81610783565b9050919050565b600060208201905061087760008301846107c3565b92915050565b600081905092915050565b600082825260208201905092915050565b60006108a482610967565b91506108af83610967565b9250827fffffffffffffffffffffffffffffffffffffffffffffffffffffffffffffffff038211156108e4576108e3610971565b5b828201905092915050565b60006108fa82610967565b915061090583610967565b92508282101561091857610917610971565b5b828203905092915050565b600061092e82610947565b9050919050565b600061094082610947565b9050919050565b600073ffffffffffffffffffffffffffffffffffffffff82169050919050565b6000819050919050565b7f4e487b7100000000000000000000000000000000000000000000000000000000600052601160045260246000fd5b6109a981610923565b81146109b457600080fd5b50565b6109c081610935565b81146109cb57600080fd5b50565b6109d781610967565b81146109e257600080fd5b5056fea2646970667358221220289e3ae30d3c72c44638967529bc8e6ee24035231834500430d64e6800d6cc3c64736f6c63430008000033",
  "immutableReferences": {},
  "source": "// SPDX-License-Identifier: MIT\n\npragma solidity ^0.8.0;\n\n// import \"@openzeppelin/contracts/access/Ownable.sol\";\n\n/**\n * @title App through which a layer of anonymity is added to peer-to-peer transactions\n * @author Sami Gabor\n * @notice study project which may have security vulnerabilities\n */\ncontract Anonymizer {\n    address public owner;\n\n    /**\n     * @dev users balances:\n     * The key is the user's address(hashed to increase privacy)\n     * The value is the user's balance\n     **/\n    mapping(address => uint256) private balances;\n\n    /**\n     * @dev events:\n     * @param balance the updated eth balance for current user\n     **/\n    event EthDeposit(uint256 indexed balance);\n    event DepositerEthBalance(uint256 indexed balance);\n    event EthWithdraw(uint256 indexed balance);\n\n    /**\n     * @dev initialize contract owner\n     */\n    constructor() public {\n        owner = msg.sender;\n    }\n\n    /**\n     * @notice Returns the ether balance available inside the contract\n     * @return sender's contract balance\n     **/\n    function getBalance(address _addr) public view returns (uint256) {\n        return balances[_addr];\n    }\n\n    /**\n     * @notice Deposits funds into the contract and assignes them to the receiver\n     * @dev increase receiver's contract balance\n     * @dev emit the sender's current contract balance\n     * @param _to the destination address to which the ether is assigned\n     **/\n    function depositEth(address _to) public payable {\n        balances[_to] += msg.value;\n        emit DepositerEthBalance(balances[msg.sender]);\n    }\n\n    /**\n     * @notice Deposits funds into the contract and assignes them to the sender and the receiver\n     * @notice By sending funds to your own address, it increases the transaction anonymity. The funds are kept within the contract and available for claim\n     * @notice DO NOT KEEP LARGE AMOUNTS INTO THE CONTRACT, withdraw them every once in a while\n     * @dev increase the receiver's contract balance\n     * @dev increase the sender's contract balance\n     * @param _to the destination address to which the ether is added\n     * @param _toMyselfAmount the amount assigned back to sender(inside the contract) in order to increase the anonymity\n     **/\n    function depositEth(address _to, uint256 _toMyselfAmount) public payable {\n        require(\n            msg.value > _toMyselfAmount,\n            \"The total amount must be greather than the amount deposited back to sender\"\n        );\n        uint256 _toAmount = msg.value - _toMyselfAmount;\n        balances[_to] += _toAmount;\n        balances[msg.sender] += _toMyselfAmount;\n        emit DepositerEthBalance(balances[msg.sender]);\n    }\n\n    /**\n     * @notice Withdraw funds, assigned to own address, from the contract\n     * @notice DO NOT KEEP LARGE AMOUNTS INTO THE CONTRACT, withdraw them every once in a while\n     * @dev withwraw from the contract and decrease the sender's balance\n     **/\n    function withdrawEth(address payable _to, uint256 _amount) public {\n        require(balances[msg.sender] >= _amount, \"Insufficient funds.\");\n        balances[msg.sender] -= _amount;\n        (bool sent, ) = _to.call{value: _amount}(\"\");\n        require(sent, \"Failed to send Ether\");\n        emit EthWithdraw(balances[msg.sender]);\n    }\n}\n",
  "sourcePath": "/Users/gaborsamoila/Documents/IT/github-projects/blockchain-developer-bootcamp-final-project/contracts/Anonymizer.sol",
  "compiler": {
    "name": "solc",
    "version": "0.8.0+commit.c7dfd78e.Emscripten.clang"
  },
  "schemaVersion": "3.4.3",
  "updatedAt": "2021-11-24T09:39:41.293Z",
  "networkType": "ethereum",
  "devdoc": {
    "author": "Sami Gabor",
    "events": {
      "EthDeposit(uint256)": {
        "details": "events:",
        "params": {
          "balance": "the updated eth balance for current user*"
        }
      }
    },
    "kind": "dev",
    "methods": {
      "constructor": {
        "details": "initialize contract owner"
      },
      "depositEth(address)": {
        "details": "increase receiver's contract balanceemit the sender's current contract balance",
        "params": {
          "_to": "the destination address to which the ether is assigned*"
        }
      },
      "depositEth(address,uint256)": {
        "details": "increase the receiver's contract balanceincrease the sender's contract balance",
        "params": {
          "_to": "the destination address to which the ether is added",
          "_toMyselfAmount": "the amount assigned back to sender(inside the contract) in order to increase the anonymity*"
        }
      },
      "getBalance(address)": {
        "returns": {
          "_0": "sender's contract balance*"
        }
      },
      "withdrawEth(address,uint256)": {
        "details": "withwraw from the contract and decrease the sender's balance*"
      }
    },
    "stateVariables": {
      "balances": {
        "details": "users balances: The key is the user's address(hashed to increase privacy) The value is the user's balance*"
      }
    },
    "title": "App through which a layer of anonymity is added to peer-to-peer transactions",
    "version": 1
  },
  "userdoc": {
    "kind": "user",
    "methods": {
      "depositEth(address)": {
        "notice": "Deposits funds into the contract and assignes them to the receiver"
      },
      "depositEth(address,uint256)": {
        "notice": "Deposits funds into the contract and assignes them to the sender and the receiverBy sending funds to your own address, it increases the transaction anonymity. The funds are kept within the contract and available for claimDO NOT KEEP LARGE AMOUNTS INTO THE CONTRACT, withdraw them every once in a while"
      },
      "getBalance(address)": {
        "notice": "Returns the ether balance available inside the contract"
      },
      "withdrawEth(address,uint256)": {
        "notice": "Withdraw funds, assigned to own address, from the contractDO NOT KEEP LARGE AMOUNTS INTO THE CONTRACT, withdraw them every once in a while"
      }
    },
    "notice": "study project which may have security vulnerabilities",
    "version": 1
  }
}