{
  "contractName": "Anonymizer",
  "abi": [
    {
      "anonymous": false,
      "inputs": [
        {
          "indexed": true,
          "internalType": "uint256",
          "name": "balance",
          "type": "uint256"
        }
      ],
      "name": "CurrentBalance",
      "type": "event"
    },
    {
      "anonymous": false,
      "inputs": [
        {
          "indexed": true,
          "internalType": "address",
          "name": "previousOwner",
          "type": "address"
        },
        {
          "indexed": true,
          "internalType": "address",
          "name": "newOwner",
          "type": "address"
        }
      ],
      "name": "OwnershipTransferred",
      "type": "event"
    },
    {
      "anonymous": false,
      "inputs": [
        {
          "indexed": false,
          "internalType": "address",
          "name": "account",
          "type": "address"
        }
      ],
      "name": "Paused",
      "type": "event"
    },
    {
      "anonymous": false,
      "inputs": [
        {
          "indexed": false,
          "internalType": "address",
          "name": "account",
          "type": "address"
        }
      ],
      "name": "Unpaused",
      "type": "event"
    },
    {
      "inputs": [],
      "name": "owner",
      "outputs": [
        {
          "internalType": "address",
          "name": "",
          "type": "address"
        }
      ],
      "stateMutability": "view",
      "type": "function",
      "constant": true
    },
    {
      "inputs": [],
      "name": "paused",
      "outputs": [
        {
          "internalType": "bool",
          "name": "",
          "type": "bool"
        }
      ],
      "stateMutability": "view",
      "type": "function",
      "constant": true
    },
    {
      "inputs": [],
      "name": "renounceOwnership",
      "outputs": [],
      "stateMutability": "nonpayable",
      "type": "function"
    },
    {
      "inputs": [
        {
          "internalType": "address",
          "name": "newOwner",
          "type": "address"
        }
      ],
      "name": "transferOwnership",
      "outputs": [],
      "stateMutability": "nonpayable",
      "type": "function"
    },
    {
      "inputs": [
        {
          "internalType": "address",
          "name": "_addr",
          "type": "address"
        }
      ],
      "name": "getBalance",
      "outputs": [
        {
          "internalType": "uint256",
          "name": "",
          "type": "uint256"
        }
      ],
      "stateMutability": "view",
      "type": "function",
      "constant": true
    },
    {
      "inputs": [
        {
          "internalType": "address",
          "name": "_to",
          "type": "address"
        },
        {
          "internalType": "uint256",
          "name": "_toMyselfAmount",
          "type": "uint256"
        }
      ],
      "name": "depositEth",
      "outputs": [],
      "stateMutability": "payable",
      "type": "function",
      "payable": true
    },
    {
      "inputs": [
        {
          "internalType": "address",
          "name": "_to",
          "type": "address"
        }
      ],
      "name": "depositEth",
      "outputs": [],
      "stateMutability": "payable",
      "type": "function",
      "payable": true
    },
    {
      "inputs": [
        {
          "internalType": "address payable",
          "name": "_to",
          "type": "address"
        },
        {
          "internalType": "uint256",
          "name": "_amount",
          "type": "uint256"
        }
      ],
      "name": "withdrawEth",
      "outputs": [],
      "stateMutability": "nonpayable",
      "type": "function"
    },
    {
      "inputs": [],
      "name": "freezeDeposits",
      "outputs": [],
      "stateMutability": "nonpayable",
      "type": "function"
    },
    {
      "inputs": [],
      "name": "unfreezeDeposits",
      "outputs": [],
      "stateMutability": "nonpayable",
      "type": "function"
    }
  ],
  "bytecode": "0x608060405234801561001057600080fd5b5061002d61002261004c60201b60201c565b61005460201b60201c565b60008060146101000a81548160ff021916908315150217905550610118565b600033905090565b60008060009054906101000a900473ffffffffffffffffffffffffffffffffffffffff169050816000806101000a81548173ffffffffffffffffffffffffffffffffffffffff021916908373ffffffffffffffffffffffffffffffffffffffff1602179055508173ffffffffffffffffffffffffffffffffffffffff168173ffffffffffffffffffffffffffffffffffffffff167f8be0079c531659141344cd1fd0a4f28419497f9722a3daafe3b4186f6b6457e060405160405180910390a35050565b61128f806101276000396000f3fe6080604052600436106100915760003560e01c8063ad9d4ba311610059578063ad9d4ba314610148578063bcb999ca14610164578063ef8ae1f91461017b578063f2fde38b14610192578063f8b2cb4f146101bb57610091565b80631b9a91a41461009657806339ed5123146100bf5780635c975abb146100db578063715018a6146101065780638da5cb5b1461011d575b600080fd5b3480156100a257600080fd5b506100bd60048036038101906100b89190610c6e565b6101f8565b005b6100d960048036038101906100d49190610cec565b6103ed565b005b3480156100e757600080fd5b506100f06105a4565b6040516100fd9190610d47565b60405180910390f35b34801561011257600080fd5b5061011b6105ba565b005b34801561012957600080fd5b50610132610642565b60405161013f9190610d71565b60405180910390f35b610162600480360381019061015d9190610d8c565b61066b565b005b34801561017057600080fd5b50610179610778565b005b34801561018757600080fd5b506101906107fe565b005b34801561019e57600080fd5b506101b960048036038101906101b49190610d8c565b610884565b005b3480156101c757600080fd5b506101e260048036038101906101dd9190610d8c565b61097c565b6040516101ef9190610dc8565b60405180910390f35b80600160003373ffffffffffffffffffffffffffffffffffffffff1673ffffffffffffffffffffffffffffffffffffffff16815260200190815260200160002054101561027a576040517f08c379a000000000000000000000000000000000000000000000000000000000815260040161027190610e40565b60405180910390fd5b80600160003373ffffffffffffffffffffffffffffffffffffffff1673ffffffffffffffffffffffffffffffffffffffff16815260200190815260200160002060008282546102c99190610e8f565b9250508190555060008273ffffffffffffffffffffffffffffffffffffffff16826040516102f690610ef4565b60006040518083038185875af1925050503d8060008114610333576040519150601f19603f3d011682016040523d82523d6000602084013e610338565b606091505b505090508061037c576040517f08c379a000000000000000000000000000000000000000000000000000000000815260040161037390610f55565b60405180910390fd5b600160003373ffffffffffffffffffffffffffffffffffffffff1673ffffffffffffffffffffffffffffffffffffffff168152602001908152602001600020547fccd63b477c883a586271d6c5e65e8a82327bddc52ed1908a1078708f8c5c101a60405160405180910390a2505050565b6103f56105a4565b15610435576040517f08c379a000000000000000000000000000000000000000000000000000000000815260040161042c90610fc1565b60405180910390fd5b803411610477576040517f08c379a000000000000000000000000000000000000000000000000000000000815260040161046e90611079565b60405180910390fd5b600081346104859190610e8f565b905080600160008573ffffffffffffffffffffffffffffffffffffffff1673ffffffffffffffffffffffffffffffffffffffff16815260200190815260200160002060008282546104d69190611099565b9250508190555081600160003373ffffffffffffffffffffffffffffffffffffffff1673ffffffffffffffffffffffffffffffffffffffff168152602001908152602001600020600082825461052c9190611099565b92505081905550600160003373ffffffffffffffffffffffffffffffffffffffff1673ffffffffffffffffffffffffffffffffffffffff168152602001908152602001600020547fccd63b477c883a586271d6c5e65e8a82327bddc52ed1908a1078708f8c5c101a60405160405180910390a2505050565b60008060149054906101000a900460ff16905090565b6105c26109c5565b73ffffffffffffffffffffffffffffffffffffffff166105e0610642565b73ffffffffffffffffffffffffffffffffffffffff1614610636576040517f08c379a000000000000000000000000000000000000000000000000000000000815260040161062d9061113b565b60405180910390fd5b61064060006109cd565b565b60008060009054906101000a900473ffffffffffffffffffffffffffffffffffffffff16905090565b6106736105a4565b156106b3576040517f08c379a00000000000000000000000000000000000000000000000000000000081526004016106aa90610fc1565b60405180910390fd5b34600160008373ffffffffffffffffffffffffffffffffffffffff1673ffffffffffffffffffffffffffffffffffffffff16815260200190815260200160002060008282546107029190611099565b92505081905550600160003373ffffffffffffffffffffffffffffffffffffffff1673ffffffffffffffffffffffffffffffffffffffff168152602001908152602001600020547fccd63b477c883a586271d6c5e65e8a82327bddc52ed1908a1078708f8c5c101a60405160405180910390a250565b6107806109c5565b73ffffffffffffffffffffffffffffffffffffffff1661079e610642565b73ffffffffffffffffffffffffffffffffffffffff16146107f4576040517f08c379a00000000000000000000000000000000000000000000000000000000081526004016107eb9061113b565b60405180910390fd5b6107fc610a91565b565b6108066109c5565b73ffffffffffffffffffffffffffffffffffffffff16610824610642565b73ffffffffffffffffffffffffffffffffffffffff161461087a576040517f08c379a00000000000000000000000000000000000000000000000000000000081526004016108719061113b565b60405180910390fd5b610882610b34565b565b61088c6109c5565b73ffffffffffffffffffffffffffffffffffffffff166108aa610642565b73ffffffffffffffffffffffffffffffffffffffff1614610900576040517f08c379a00000000000000000000000000000000000000000000000000000000081526004016108f79061113b565b60405180910390fd5b600073ffffffffffffffffffffffffffffffffffffffff168173ffffffffffffffffffffffffffffffffffffffff161415610970576040517f08c379a0000000000000000000000000000000000000000000000000000000008152600401610967906111cd565b60405180910390fd5b610979816109cd565b50565b6000600160008373ffffffffffffffffffffffffffffffffffffffff1673ffffffffffffffffffffffffffffffffffffffff168152602001908152602001600020549050919050565b600033905090565b60008060009054906101000a900473ffffffffffffffffffffffffffffffffffffffff169050816000806101000a81548173ffffffffffffffffffffffffffffffffffffffff021916908373ffffffffffffffffffffffffffffffffffffffff1602179055508173ffffffffffffffffffffffffffffffffffffffff168173ffffffffffffffffffffffffffffffffffffffff167f8be0079c531659141344cd1fd0a4f28419497f9722a3daafe3b4186f6b6457e060405160405180910390a35050565b610a996105a4565b15610ad9576040517f08c379a0000000000000000000000000000000000000000000000000000000008152600401610ad090610fc1565b60405180910390fd5b6001600060146101000a81548160ff0219169083151502179055507f62e78cea01bee320cd4e420270b5ea74000d11b0c9f74754ebdbfc544b05a258610b1d6109c5565b604051610b2a9190610d71565b60405180910390a1565b610b3c6105a4565b610b7b576040517f08c379a0000000000000000000000000000000000000000000000000000000008152600401610b7290611239565b60405180910390fd5b60008060146101000a81548160ff0219169083151502179055507f5db9ee0a495bf2e6ff9c91a7834c1ba4fdd244a5e8aa4e537bd38aeae4b073aa610bbe6109c5565b604051610bcb9190610d71565b60405180910390a1565b600080fd5b600073ffffffffffffffffffffffffffffffffffffffff82169050919050565b6000610c0582610bda565b9050919050565b610c1581610bfa565b8114610c2057600080fd5b50565b600081359050610c3281610c0c565b92915050565b6000819050919050565b610c4b81610c38565b8114610c5657600080fd5b50565b600081359050610c6881610c42565b92915050565b60008060408385031215610c8557610c84610bd5565b5b6000610c9385828601610c23565b9250506020610ca485828601610c59565b9150509250929050565b6000610cb982610bda565b9050919050565b610cc981610cae565b8114610cd457600080fd5b50565b600081359050610ce681610cc0565b92915050565b60008060408385031215610d0357610d02610bd5565b5b6000610d1185828601610cd7565b9250506020610d2285828601610c59565b9150509250929050565b60008115159050919050565b610d4181610d2c565b82525050565b6000602082019050610d5c6000830184610d38565b92915050565b610d6b81610cae565b82525050565b6000602082019050610d866000830184610d62565b92915050565b600060208284031215610da257610da1610bd5565b5b6000610db084828501610cd7565b91505092915050565b610dc281610c38565b82525050565b6000602082019050610ddd6000830184610db9565b92915050565b600082825260208201905092915050565b7f496e73756666696369656e742066756e64732e00000000000000000000000000600082015250565b6000610e2a601383610de3565b9150610e3582610df4565b602082019050919050565b60006020820190508181036000830152610e5981610e1d565b9050919050565b7f4e487b7100000000000000000000000000000000000000000000000000000000600052601160045260246000fd5b6000610e9a82610c38565b9150610ea583610c38565b925082821015610eb857610eb7610e60565b5b828203905092915050565b600081905092915050565b50565b6000610ede600083610ec3565b9150610ee982610ece565b600082019050919050565b6000610eff82610ed1565b9150819050919050565b7f4661696c656420746f2073656e64204574686572000000000000000000000000600082015250565b6000610f3f601483610de3565b9150610f4a82610f09565b602082019050919050565b60006020820190508181036000830152610f6e81610f32565b9050919050565b7f5061757361626c653a2070617573656400000000000000000000000000000000600082015250565b6000610fab601083610de3565b9150610fb682610f75565b602082019050919050565b60006020820190508181036000830152610fda81610f9e565b9050919050565b7f54686520746f74616c20616d6f756e74206d757374206265206772656174686560008201527f72207468616e2074686520616d6f756e74206465706f7369746564206261636b60208201527f20746f2073656e64657200000000000000000000000000000000000000000000604082015250565b6000611063604a83610de3565b915061106e82610fe1565b606082019050919050565b6000602082019050818103600083015261109281611056565b9050919050565b60006110a482610c38565b91506110af83610c38565b9250827fffffffffffffffffffffffffffffffffffffffffffffffffffffffffffffffff038211156110e4576110e3610e60565b5b828201905092915050565b7f4f776e61626c653a2063616c6c6572206973206e6f7420746865206f776e6572600082015250565b6000611125602083610de3565b9150611130826110ef565b602082019050919050565b6000602082019050818103600083015261115481611118565b9050919050565b7f4f776e61626c653a206e6577206f776e657220697320746865207a65726f206160008201527f6464726573730000000000000000000000000000000000000000000000000000602082015250565b60006111b7602683610de3565b91506111c28261115b565b604082019050919050565b600060208201905081810360008301526111e6816111aa565b9050919050565b7f5061757361626c653a206e6f7420706175736564000000000000000000000000600082015250565b6000611223601483610de3565b915061122e826111ed565b602082019050919050565b6000602082019050818103600083015261125281611216565b905091905056fea26469706673582212201a3fb05ba0e94b64073360f173021127e3f05fdcf05ca002f4c446f69e50014664736f6c634300080a0033",
  "immutableReferences": {},
  "source": "// SPDX-License-Identifier: MIT\n\nimport \"@openzeppelin/contracts/access/Ownable.sol\";\nimport \"@openzeppelin/contracts/security/Pausable.sol\";\n\npragma solidity 0.8.10;\n\n/**\n * @title App through which a layer of anonymity is added to peer-to-peer transactions\n * @author Sami Gabor\n * @notice study project which may have security vulnerabilities\n */\ncontract Anonymizer is Ownable, Pausable {\n    /**\n     * @dev users balances:\n     * The key is the user's address(hashed to increase privacy)\n     * The value is the user's balance\n     **/\n    mapping(address => uint256) private balances;\n\n    /**\n     * @dev events:\n     * @param balance the updated eth balance for current user\n     **/\n    event CurrentBalance(uint256 indexed balance);\n\n    /**\n     * @notice Returns the ether balance available inside the contract\n     * @return sender's contract balance\n     **/\n    function getBalance(address _addr) public view returns (uint256) {\n        return balances[_addr];\n    }\n\n    /**\n     * @notice Deposits funds into the contract and assignes them to the receiver\n     * @dev increase receiver's contract balance\n     * @dev emit the sender's current contract balance\n     * @param _to the destination address to which the ether is assigned\n     **/\n    function depositEth(address _to) public payable whenNotPaused {\n        balances[_to] += msg.value;\n        emit CurrentBalance(balances[msg.sender]);\n    }\n\n    /**\n     * @notice Deposits funds into the contract and assignes them to the sender and the receiver\n     * @notice By sending funds to your own address, it increases the transaction anonymity. The funds are kept within the contract and available for claim\n     * @notice DO NOT KEEP LARGE AMOUNTS INTO THE CONTRACT, withdraw them every once in a while\n     * @dev increase the receiver's contract balance\n     * @dev increase the sender's contract balance\n     * @param _to the destination address to which the ether is added\n     * @param _toMyselfAmount the amount assigned back to sender(inside the contract) in order to increase the anonymity\n     **/\n    function depositEth(address _to, uint256 _toMyselfAmount)\n        public\n        payable\n        whenNotPaused\n    {\n        require(\n            msg.value > _toMyselfAmount,\n            \"The total amount must be greather than the amount deposited back to sender\"\n        );\n        uint256 _toAmount = msg.value - _toMyselfAmount;\n        balances[_to] += _toAmount;\n        balances[msg.sender] += _toMyselfAmount;\n        emit CurrentBalance(balances[msg.sender]);\n    }\n\n    /**\n     * @notice Withdraw funds, assigned to own address, from the contract\n     * @notice DO NOT KEEP LARGE AMOUNTS INTO THE CONTRACT, withdraw them every once in a while\n     * @dev withwraw from the contract and decrease the sender's balance\n     **/\n    function withdrawEth(address payable _to, uint256 _amount) public {\n        require(balances[msg.sender] >= _amount, \"Insufficient funds.\");\n        balances[msg.sender] -= _amount;\n        (bool sent, ) = _to.call{value: _amount}(\"\");\n        require(sent, \"Failed to send Ether\");\n        emit CurrentBalance(balances[msg.sender]);\n    }\n\n    /**\n     * @notice Pause deposits into the contract\n     **/\n    function freezeDeposits() external onlyOwner {\n        _pause();\n    }\n\n    /**\n     * @notice Resume deposits into the contract\n     **/\n    function unfreezeDeposits() external onlyOwner {\n        _unpause();\n    }\n}\n",
  "sourcePath": "/Users/gaborsamoila/Documents/IT/github-projects/blockchain-developer-bootcamp-final-project/contracts/Anonymizer.sol",
  "compiler": {
    "name": "solc",
    "version": "0.8.10+commit.fc410830.Emscripten.clang"
  },
  "schemaVersion": "3.4.3",
  "updatedAt": "2021-11-26T14:48:39.209Z",
  "networkType": "ethereum",
  "devdoc": {
    "author": "Sami Gabor",
    "events": {
      "CurrentBalance(uint256)": {
        "details": "events:",
        "params": {
          "balance": "the updated eth balance for current user*"
        }
      }
    },
    "kind": "dev",
    "methods": {
      "depositEth(address)": {
        "details": "increase receiver's contract balanceemit the sender's current contract balance",
        "params": {
          "_to": "the destination address to which the ether is assigned*"
        }
      },
      "depositEth(address,uint256)": {
        "details": "increase the receiver's contract balanceincrease the sender's contract balance",
        "params": {
          "_to": "the destination address to which the ether is added",
          "_toMyselfAmount": "the amount assigned back to sender(inside the contract) in order to increase the anonymity*"
        }
      },
      "getBalance(address)": {
        "returns": {
          "_0": "sender's contract balance*"
        }
      },
      "owner()": {
        "details": "Returns the address of the current owner."
      },
      "paused()": {
        "details": "Returns true if the contract is paused, and false otherwise."
      },
      "renounceOwnership()": {
        "details": "Leaves the contract without owner. It will not be possible to call `onlyOwner` functions anymore. Can only be called by the current owner. NOTE: Renouncing ownership will leave the contract without an owner, thereby removing any functionality that is only available to the owner."
      },
      "transferOwnership(address)": {
        "details": "Transfers ownership of the contract to a new account (`newOwner`). Can only be called by the current owner."
      },
      "withdrawEth(address,uint256)": {
        "details": "withwraw from the contract and decrease the sender's balance*"
      }
    },
    "stateVariables": {
      "balances": {
        "details": "users balances: The key is the user's address(hashed to increase privacy) The value is the user's balance*"
      }
    },
    "title": "App through which a layer of anonymity is added to peer-to-peer transactions",
    "version": 1
  },
  "userdoc": {
    "kind": "user",
    "methods": {
      "depositEth(address)": {
        "notice": "Deposits funds into the contract and assignes them to the receiver"
      },
      "depositEth(address,uint256)": {
        "notice": "Deposits funds into the contract and assignes them to the sender and the receiverBy sending funds to your own address, it increases the transaction anonymity. The funds are kept within the contract and available for claimDO NOT KEEP LARGE AMOUNTS INTO THE CONTRACT, withdraw them every once in a while"
      },
      "freezeDeposits()": {
        "notice": "Pause deposits into the contract*"
      },
      "getBalance(address)": {
        "notice": "Returns the ether balance available inside the contract"
      },
      "unfreezeDeposits()": {
        "notice": "Resume deposits into the contract*"
      },
      "withdrawEth(address,uint256)": {
        "notice": "Withdraw funds, assigned to own address, from the contractDO NOT KEEP LARGE AMOUNTS INTO THE CONTRACT, withdraw them every once in a while"
      }
    },
    "notice": "study project which may have security vulnerabilities",
    "version": 1
  }
}